{
  "contractName": "EthTxt",
  "abi": [
    {
      "anonymous": false,
      "inputs": [
        {
          "indexed": false,
          "name": "text",
          "type": "string"
        },
        {
          "indexed": false,
          "name": "code",
          "type": "string"
        },
        {
          "indexed": true,
          "name": "submitter",
          "type": "address"
        },
        {
          "indexed": false,
          "name": "timestamp",
          "type": "uint256"
        }
      ],
      "name": "NewText",
      "type": "event"
    },
    {
      "constant": false,
      "inputs": [
        {
          "name": "_text",
          "type": "string"
        }
      ],
      "name": "archiveText",
      "outputs": [],
      "payable": false,
      "stateMutability": "nonpayable",
      "type": "function"
    },
    {
      "constant": true,
      "inputs": [
        {
          "name": "_code",
          "type": "string"
        }
      ],
      "name": "getText",
      "outputs": [
        {
          "name": "",
          "type": "string"
        }
      ],
      "payable": false,
      "stateMutability": "view",
      "type": "function"
    },
    {
      "constant": true,
      "inputs": [
        {
          "name": "_code",
          "type": "string"
        }
      ],
      "name": "getDataFromCode",
      "outputs": [
        {
          "name": "",
          "type": "string"
        },
        {
          "name": "",
          "type": "address"
        },
        {
          "name": "",
          "type": "uint256"
        }
      ],
      "payable": false,
      "stateMutability": "view",
      "type": "function"
    },
    {
      "constant": true,
      "inputs": [],
      "name": "getTextCount",
      "outputs": [
        {
          "name": "",
          "type": "uint256"
        }
      ],
      "payable": false,
      "stateMutability": "view",
      "type": "function"
    }
  ],
  "bytecode": "0x6060604052600080556000600155341561001857600080fd5b610e9a806100276000396000f300606060405260043610610062576000357c0100000000000000000000000000000000000000000000000000000000900463ffffffff16806313f652fe146100675780631c8a77951461013d578063e29532c11461019a578063f64e167e146102aa575b600080fd5b341561007257600080fd5b6100c2600480803590602001908201803590602001908080601f016020809104026020016040519081016040528093929190818152602001838380828437820191505050505050919050506102d3565b6040518080602001828103825283818151815260200191508051906020019080838360005b838110156101025780820151818401526020810190506100e7565b50505050905090810190601f16801561012f5780820380516001836020036101000a031916815260200191505b509250505060405180910390f35b341561014857600080fd5b610198600480803590602001908201803590602001908080601f016020809104026020016040519081016040528093929190818152602001838380828437820191505050505050919050506103e9565b005b34156101a557600080fd5b6101f5600480803590602001908201803590602001908080601f0160208091040260200160405190810160405280939291908181526020018383808284378201915050505050509190505061066a565b60405180806020018473ffffffffffffffffffffffffffffffffffffffff1673ffffffffffffffffffffffffffffffffffffffff168152602001838152602001828103825285818151815260200191508051906020019080838360005b8381101561026d578082015181840152602081019050610252565b50505050905090810190601f16801561029a5780820380516001836020036101000a031916815260200191505b5094505050505060405180910390f35b34156102b557600080fd5b6102bd61088a565b6040518082815260200191505060405180910390f35b6102db610da1565b6002826040518082805190602001908083835b60208310151561031357805182526020820191506020810190506020830392506102ee565b6001836020036101000a03801982511681845116808217855250505050505090500191505090815260200160405180910390206000018054600181600116156101000203166002900480601f0160208091040260200160405190810160405280929190818152602001828054600181600116156101000203166002900480156103dd5780601f106103b2576101008083540402835291602001916103dd565b820191906000526020600020905b8154815290600101906020018083116103c057829003601f168201915b50505050509050919050565b6103f1610da1565b600082511415151561040257600080fd5b61040a610893565b90506000610417826102d3565b5114151561042457600080fd5b6060604051908101604052808381526020013373ffffffffffffffffffffffffffffffffffffffff168152602001428152506002826040518082805190602001908083835b60208310151561048e5780518252602082019150602081019050602083039250610469565b6001836020036101000a038019825116818451168082178552505050505050905001915050908152602001604051809103902060008201518160000190805190602001906104dd929190610db5565b5060208201518160010160006101000a81548173ffffffffffffffffffffffffffffffffffffffff021916908373ffffffffffffffffffffffffffffffffffffffff160217905550604082015181600201559050503373ffffffffffffffffffffffffffffffffffffffff167f4febe7934fc7ddc519ec1867b9093efacd75fbca3e58c811f0279c7a26f8c915838342604051808060200180602001848152602001838103835286818151815260200191508051906020019080838360005b838110156105b757808201518184015260208101905061059c565b50505050905090810190601f1680156105e45780820380516001836020036101000a031916815260200191505b50838103825285818151815260200191508051906020019080838360005b8381101561061d578082015181840152602081019050610602565b50505050905090810190601f16801561064a5780820380516001836020036101000a031916815260200191505b509550505050505060405180910390a26001600054016000819055505050565b610672610da1565b6000806002846040518082805190602001908083835b6020831015156106ad5780518252602082019150602081019050602083039250610688565b6001836020036101000a03801982511681845116808217855250505050505090500191505090815260200160405180910390206000016002856040518082805190602001908083835b60208310151561071b57805182526020820191506020810190506020830392506106f6565b6001836020036101000a038019825116818451168082178552505050505050905001915050908152602001604051809103902060010160009054906101000a900473ffffffffffffffffffffffffffffffffffffffff166002866040518082805190602001908083835b6020831015156107aa5780518252602082019150602081019050602083039250610785565b6001836020036101000a038019825116818451168082178552505050505050905001915050908152602001604051809103902060020154828054600181600116156101000203166002900480601f0160208091040260200160405190810160405280929190818152602001828054600181600116156101000203166002900480156108765780601f1061084b57610100808354040283529160200191610876565b820191906000526020600020905b81548152906001019060200180831161085957829003601f168201915b505050505092509250925092509193909250565b60008054905090565b61089b610da1565b6108a3610da1565b6108ab610da1565b6108b3610da1565b6108d43373ffffffffffffffffffffffffffffffffffffffff1660026108fc565b92506108e56001544303600b6108fc565b91506108f18383610bc1565b905080935050505090565b610904610da1565b61090c610da1565b610914610e35565b600080600080610922610e35565b600061092c610e35565b606060405190810160405280603a81526020017f3132333435363738396162636465666768696a6b6d6e6f70717273747576777881526020017f797a41424344454647484a4b4c4d4e505152535455565758595a0000000000008152509850889750603a96506000955060009450600093508a60ff166040518059106109af5750595b9080825280601f01601f19166020018201604052509250600091505b8a60ff168260ff161015610ac5578660ff168c10156109e957600193505b8660ff168c8115156109f757fe5b0694508660ff168c811515610a0857fe5b049b508785815181101515610a1957fe5b9060200101517f010000000000000000000000000000000000000000000000000000000000000090047f010000000000000000000000000000000000000000000000000000000000000002838360ff16815181101515610a7557fe5b9060200101907effffffffffffffffffffffffffffffffffffffffffffffffffffffffffffff1916908160001a90535085806001019650508315610ab857610ac5565b81806001019250506109cb565b8560ff16604051805910610ad65750595b9080825280601f01601f19166020018201604052509050600091505b8560ff168260ff161015610baf578260018388030360ff16815181101515610b1657fe5b9060200101517f010000000000000000000000000000000000000000000000000000000000000090047f010000000000000000000000000000000000000000000000000000000000000002818360ff16815181101515610b7257fe5b9060200101907effffffffffffffffffffffffffffffffffffffffffffffffffffffffffffff1916908160001a9053508180600101925050610af2565b80995050505050505050505092915050565b610bc9610da1565b610bd1610e35565b610bd9610e35565b610be1610da1565b610be9610e35565b6000808895508794508451865101604051805910610c045750595b9080825280601f01601f1916602001820160405250935083925060009150600090505b8551811015610cda578581815181101515610c3e57fe5b9060200101517f010000000000000000000000000000000000000000000000000000000000000090047f0100000000000000000000000000000000000000000000000000000000000000028383806001019450815181101515610c9d57fe5b9060200101907effffffffffffffffffffffffffffffffffffffffffffffffffffffffffffff1916908160001a9053508080600101915050610c27565b600090505b8451811015610d92578481815181101515610cf657fe5b9060200101517f010000000000000000000000000000000000000000000000000000000000000090047f0100000000000000000000000000000000000000000000000000000000000000028383806001019450815181101515610d5557fe5b9060200101907effffffffffffffffffffffffffffffffffffffffffffffffffffffffffffff1916908160001a9053508080600101915050610cdf565b82965050505050505092915050565b602060405190810160405280600081525090565b828054600181600116156101000203166002900490600052602060002090601f016020900481019282601f10610df657805160ff1916838001178555610e24565b82800160010185558215610e24579182015b82811115610e23578251825591602001919060010190610e08565b5b509050610e319190610e49565b5090565b602060405190810160405280600081525090565b610e6b91905b80821115610e67576000816000905550600101610e4f565b5090565b905600a165627a7a72305820b58944d420aa6945310101f8d72358d8f3a433f87d0844b796d39d24945747c00029",
  "source": "pragma solidity ^0.4.18;\n\nimport \"./StrUtils.sol\";\n\ncontract EthTxt {\n\n  event NewText(string text, string code, address indexed submitter, uint timestamp);\n\n  struct StoredText {\n      string text;\n      address submitter;\n      uint timestamp;\n  }\n\n  uint storedTextCount = 0;\n\n  // change this to 0 for testnet / ropsten\n  uint blockoffset = 0;//4000000;\n\n  mapping (string => StoredText) texts;\n\n  function archiveText(string _text) public {\n    // make sure _text is not an empty string\n    require(bytes(_text).length != 0);\n\n    var code = _generateShortLink();\n    // make sure code doesnt exist in map\n    require(bytes(getText(code)).length == 0);\n\n    // add text to map\n    texts[code] = StoredText(_text, msg.sender, now);\n    NewText(_text, code, msg.sender, now);\n    storedTextCount = storedTextCount + 1;\n  }\n\n  function getText(string _code) public view returns (string) {\n    return texts[_code].text;\n  }\n\n  function getDataFromCode(string _code) public view returns (string, address, uint) {\n    return (texts[_code].text, texts[_code].submitter, texts[_code].timestamp);\n  }\n\n  function getTextCount() public view returns (uint) {\n    return storedTextCount;\n  }\n\n  // Generates a shortlink code\n  function _generateShortLink() private view returns (string) {\n      var s1 = strUtils.toBase58(uint256(msg.sender), 2);\n      var s2 = strUtils.toBase58(block.number - blockoffset, 11);\n\n      var s = strUtils.concat(s1, s2);\n      return s;\n  }\n\n}\n",
  "sourcePath": "/Users/claykohut/webdev/ethtxt/contracts/EthTxt.sol",
  "compiler": {
    "name": "solc",
    "version": "0.4.19+commit.c4cbbb05.Emscripten.clang"
  },
  "schemaVersion": "1.0.1",
  "updatedAt": "2018-02-25T03:22:30.039Z"
}