{
  "contractName": "EthTxt",
  "abi": [
    {
      "anonymous": false,
      "inputs": [
        {
          "indexed": false,
          "name": "text",
          "type": "string"
        },
        {
          "indexed": false,
          "name": "code",
          "type": "string"
        },
        {
          "indexed": true,
          "name": "submitter",
          "type": "address"
        },
        {
          "indexed": false,
          "name": "timestamp",
          "type": "uint256"
        }
      ],
      "name": "NewText",
      "type": "event"
    },
    {
      "constant": false,
      "inputs": [
        {
          "name": "_text",
          "type": "string"
        }
      ],
      "name": "archiveText",
      "outputs": [],
      "payable": false,
      "stateMutability": "nonpayable",
      "type": "function"
    },
    {
      "constant": true,
      "inputs": [
        {
          "name": "_code",
          "type": "string"
        }
      ],
      "name": "getText",
      "outputs": [
        {
          "name": "",
          "type": "string"
        }
      ],
      "payable": false,
      "stateMutability": "view",
      "type": "function"
    },
    {
      "constant": true,
      "inputs": [],
      "name": "getTextCount",
      "outputs": [
        {
          "name": "",
          "type": "uint256"
        }
      ],
      "payable": false,
      "stateMutability": "view",
      "type": "function"
    }
  ],
  "bytecode": "0x606060405260008055623d0900600155341561001a57600080fd5b610b5f806100296000396000f300606060405260043610610057576000357c0100000000000000000000000000000000000000000000000000000000900463ffffffff16806313f652fe1461005c5780631c8a779514610132578063f64e167e1461018f575b600080fd5b341561006757600080fd5b6100b7600480803590602001908201803590602001908080601f016020809104026020016040519081016040528093929190818152602001838380828437820191505050505050919050506101b8565b6040518080602001828103825283818151815260200191508051906020019080838360005b838110156100f75780820151818401526020810190506100dc565b50505050905090810190601f1680156101245780820380516001836020036101000a031916815260200191505b509250505060405180910390f35b341561013d57600080fd5b61018d600480803590602001908201803590602001908080601f016020809104026020016040519081016040528093929190818152602001838380828437820191505050505050919050506102ce565b005b341561019a57600080fd5b6101a261054f565b6040518082815260200191505060405180910390f35b6101c0610a66565b6002826040518082805190602001908083835b6020831015156101f857805182526020820191506020810190506020830392506101d3565b6001836020036101000a03801982511681845116808217855250505050505090500191505090815260200160405180910390206000018054600181600116156101000203166002900480601f0160208091040260200160405190810160405280929190818152602001828054600181600116156101000203166002900480156102c25780601f10610297576101008083540402835291602001916102c2565b820191906000526020600020905b8154815290600101906020018083116102a557829003601f168201915b50505050509050919050565b6102d6610a66565b60008251141515156102e757600080fd5b6102ef610558565b905060006102fc826101b8565b5114151561030957600080fd5b6060604051908101604052808381526020013373ffffffffffffffffffffffffffffffffffffffff168152602001428152506002826040518082805190602001908083835b602083101515610373578051825260208201915060208101905060208303925061034e565b6001836020036101000a038019825116818451168082178552505050505050905001915050908152602001604051809103902060008201518160000190805190602001906103c2929190610a7a565b5060208201518160010160006101000a81548173ffffffffffffffffffffffffffffffffffffffff021916908373ffffffffffffffffffffffffffffffffffffffff160217905550604082015181600201559050503373ffffffffffffffffffffffffffffffffffffffff167f4febe7934fc7ddc519ec1867b9093efacd75fbca3e58c811f0279c7a26f8c915838342604051808060200180602001848152602001838103835286818151815260200191508051906020019080838360005b8381101561049c578082015181840152602081019050610481565b50505050905090810190601f1680156104c95780820380516001836020036101000a031916815260200191505b50838103825285818151815260200191508051906020019080838360005b838110156105025780820151818401526020810190506104e7565b50505050905090810190601f16801561052f5780820380516001836020036101000a031916815260200191505b509550505050505060405180910390a26001600054016000819055505050565b60008054905090565b610560610a66565b610568610a66565b610570610a66565b610578610a66565b6105993373ffffffffffffffffffffffffffffffffffffffff1660026105c1565b92506105aa6001544303600b6105c1565b91506105b68383610886565b905080935050505090565b6105c9610a66565b6105d1610a66565b6105d9610afa565b6000806000806105e7610afa565b60006105f1610afa565b606060405190810160405280603a81526020017f3132333435363738396162636465666768696a6b6d6e6f70717273747576777881526020017f797a41424344454647484a4b4c4d4e505152535455565758595a0000000000008152509850889750603a96506000955060009450600093508a60ff166040518059106106745750595b9080825280601f01601f19166020018201604052509250600091505b8a60ff168260ff16101561078a578660ff168c10156106ae57600193505b8660ff168c8115156106bc57fe5b0694508660ff168c8115156106cd57fe5b049b5087858151811015156106de57fe5b9060200101517f010000000000000000000000000000000000000000000000000000000000000090047f010000000000000000000000000000000000000000000000000000000000000002838360ff1681518110151561073a57fe5b9060200101907effffffffffffffffffffffffffffffffffffffffffffffffffffffffffffff1916908160001a9053508580600101965050831561077d5761078a565b8180600101925050610690565b8560ff1660405180591061079b5750595b9080825280601f01601f19166020018201604052509050600091505b8560ff168260ff161015610874578260018388030360ff168151811015156107db57fe5b9060200101517f010000000000000000000000000000000000000000000000000000000000000090047f010000000000000000000000000000000000000000000000000000000000000002818360ff1681518110151561083757fe5b9060200101907effffffffffffffffffffffffffffffffffffffffffffffffffffffffffffff1916908160001a90535081806001019250506107b7565b80995050505050505050505092915050565b61088e610a66565b610896610afa565b61089e610afa565b6108a6610a66565b6108ae610afa565b60008088955087945084518651016040518059106108c95750595b9080825280601f01601f1916602001820160405250935083925060009150600090505b855181101561099f57858181518110151561090357fe5b9060200101517f010000000000000000000000000000000000000000000000000000000000000090047f010000000000000000000000000000000000000000000000000000000000000002838380600101945081518110151561096257fe5b9060200101907effffffffffffffffffffffffffffffffffffffffffffffffffffffffffffff1916908160001a90535080806001019150506108ec565b600090505b8451811015610a575784818151811015156109bb57fe5b9060200101517f010000000000000000000000000000000000000000000000000000000000000090047f0100000000000000000000000000000000000000000000000000000000000000028383806001019450815181101515610a1a57fe5b9060200101907effffffffffffffffffffffffffffffffffffffffffffffffffffffffffffff1916908160001a90535080806001019150506109a4565b82965050505050505092915050565b602060405190810160405280600081525090565b828054600181600116156101000203166002900490600052602060002090601f016020900481019282601f10610abb57805160ff1916838001178555610ae9565b82800160010185558215610ae9579182015b82811115610ae8578251825591602001919060010190610acd565b5b509050610af69190610b0e565b5090565b602060405190810160405280600081525090565b610b3091905b80821115610b2c576000816000905550600101610b14565b5090565b905600a165627a7a7230582079cb5fc51d3bd69d5c00b173c252b95d226b32b00863d5d8ee4cee89e20699a40029",
  "source": "pragma solidity ^0.4.18;\n\nimport \"./StrUtils.sol\";\n\ncontract EthTxt {\n\n  event NewText(string text, string code, address indexed submitter, uint timestamp);\n\n  struct StoredText {\n      string text;\n      address submitter;\n      uint timestamp;\n  }\n\n  uint storedTextCount = 0;\n\n  // change this to 0 for testnet / ropsten\n  uint blockoffset = 4000000;\n\n  mapping (string => StoredText) texts;\n\n  function archiveText(string _text) public {\n    // make sure _text is not an empty string\n    require(bytes(_text).length != 0);\n\n    var code = _generateShortLink();\n    // make sure code doesnt exist in map\n    require(bytes(getText(code)).length == 0);\n\n    // add text to map\n    texts[code] = StoredText(_text, msg.sender, now);\n    NewText(_text, code, msg.sender, now);\n    storedTextCount = storedTextCount + 1;\n  }\n\n  function getText(string _code) public view returns (string) {\n    return texts[_code].text;\n  }\n\n  function getTextCount() public view returns (uint) {\n    return storedTextCount;\n  }\n\n  // Generates a shortlink code\n  function _generateShortLink() private view returns (string) {\n      var s1 = strUtils.toBase58(uint256(msg.sender), 2);\n      var s2 = strUtils.toBase58(block.number - blockoffset, 11);\n\n      var s = strUtils.concat(s1, s2);\n      return s;\n  }\n\n}\n",
  "sourcePath": "/Users/claykohut/webdev/ethtxt/contracts/EthTxt.sol",
  "compiler": {
    "name": "solc",
    "version": "0.4.19+commit.c4cbbb05.Emscripten.clang"
  },
  "schemaVersion": "1.0.1",
  "updatedAt": "2018-02-21T05:42:04.530Z"
}