{
  "contractName": "EthTxt",
  "abi": [
    {
      "constant": true,
      "inputs": [
        {
          "name": "",
          "type": "uint256"
        }
      ],
      "name": "texts",
      "outputs": [
        {
          "name": "text",
          "type": "string"
        }
      ],
      "payable": false,
      "stateMutability": "view",
      "type": "function"
    },
    {
      "inputs": [],
      "payable": false,
      "stateMutability": "nonpayable",
      "type": "constructor"
    },
    {
      "anonymous": false,
      "inputs": [
        {
          "indexed": false,
          "name": "textId",
          "type": "uint256"
        },
        {
          "indexed": false,
          "name": "text",
          "type": "string"
        }
      ],
      "name": "NewText",
      "type": "event"
    },
    {
      "constant": false,
      "inputs": [
        {
          "name": "_text",
          "type": "string"
        }
      ],
      "name": "archiveText",
      "outputs": [],
      "payable": false,
      "stateMutability": "nonpayable",
      "type": "function"
    },
    {
      "constant": true,
      "inputs": [
        {
          "name": "_id",
          "type": "uint256"
        }
      ],
      "name": "getText",
      "outputs": [
        {
          "name": "",
          "type": "string"
        }
      ],
      "payable": false,
      "stateMutability": "view",
      "type": "function"
    },
    {
      "constant": true,
      "inputs": [],
      "name": "getTextCount",
      "outputs": [
        {
          "name": "",
          "type": "uint256"
        }
      ],
      "payable": false,
      "stateMutability": "view",
      "type": "function"
    }
  ],
  "bytecode": "0x6060604052341561000f57600080fd5b6100606040805190810160405280600c81526020017f48656c6c6f20576f726c6421000000000000000000000000000000000000000081525061006564010000000002610242176401000000009004565b6102b1565b600060016000805480600101828161007d9190610169565b9160005260206000209001600060206040519081016040528087815250909190915060008201518160000190805190602001906100bb929190610195565b5050500390507ff9f61def5352c92370e00ed246257ff5394c4114f530990ff86f5795cf5f032881836040518083815260200180602001828103825283818151815260200191508051906020019080838360005b8381101561012a57808201518184015260208101905061010f565b50505050905090810190601f1680156101575780820380516001836020036101000a031916815260200191505b50935050505060405180910390a15050565b8154818355818115116101905781836000526020600020918201910161018f9190610215565b5b505050565b828054600181600116156101000203166002900490600052602060002090601f016020900481019282601f106101d657805160ff1916838001178555610204565b82800160010185558215610204579182015b828111156102035782518255916020019190600101906101e8565b5b5090506102119190610244565b5090565b61024191905b8082111561023d57600080820160006102349190610269565b5060010161021b565b5090565b90565b61026691905b8082111561026257600081600090555060010161024a565b5090565b90565b50805460018160011615610100020316600290046000825580601f1061028f57506102ae565b601f0160209004906000526020600020908101906102ad9190610244565b5b50565b6105c8806102c06000396000f300606060405260043610610062576000357c0100000000000000000000000000000000000000000000000000000000900463ffffffff1680631c8a7795146100675780635c121972146100c45780637f4ef9d41461017d578063f64e167e14610219575b600080fd5b341561007257600080fd5b6100c2600480803590602001908201803590602001908080601f01602080910402602001604051908101604052809392919081815260200183838082843782019150505050505091905050610242565b005b34156100cf57600080fd5b6100e56004808035906020019091905050610346565b604051808060200182810382528381815460018160011615610100020316600290048152602001915080546001816001161561010002031660029004801561016e5780601f106101435761010080835404028352916020019161016e565b820191906000526020600020905b81548152906001019060200180831161015157829003601f168201915b50509250505060405180910390f35b341561018857600080fd5b61019e600480803590602001909190505061036f565b6040518080602001828103825283818151815260200191508051906020019080838360005b838110156101de5780820151818401526020810190506101c3565b50505050905090810190601f16801561020b5780820380516001836020036101000a031916815260200191505b509250505060405180910390f35b341561022457600080fd5b61022c610434565b6040518082815260200191505060405180910390f35b600060016000805480600101828161025a9190610440565b91600052602060002090016000602060405190810160405280878152509091909150600082015181600001908051906020019061029892919061046c565b5050500390507ff9f61def5352c92370e00ed246257ff5394c4114f530990ff86f5795cf5f032881836040518083815260200180602001828103825283818151815260200191508051906020019080838360005b838110156103075780820151818401526020810190506102ec565b50505050905090810190601f1680156103345780820380516001836020036101000a031916815260200191505b50935050505060405180910390a15050565b60008181548110151561035557fe5b906000526020600020900160009150905080600001905081565b6103776104ec565b60008281548110151561038657fe5b90600052602060002090016000018054600181600116156101000203166002900480601f0160208091040260200160405190810160405280929190818152602001828054600181600116156101000203166002900480156104285780601f106103fd57610100808354040283529160200191610428565b820191906000526020600020905b81548152906001019060200180831161040b57829003601f168201915b50505050509050919050565b60008080549050905090565b815481835581811511610467578183600052602060002091820191016104669190610500565b5b505050565b828054600181600116156101000203166002900490600052602060002090601f016020900481019282601f106104ad57805160ff19168380011785556104db565b828001600101855582156104db579182015b828111156104da5782518255916020019190600101906104bf565b5b5090506104e8919061052f565b5090565b602060405190810160405280600081525090565b61052c91905b80821115610528576000808201600061051f9190610554565b50600101610506565b5090565b90565b61055191905b8082111561054d576000816000905550600101610535565b5090565b90565b50805460018160011615610100020316600290046000825580601f1061057a5750610599565b601f016020900490600052602060002090810190610598919061052f565b5b505600a165627a7a723058200c741d63c418ac95532fc6ba2351bd50643ec65456ab356504fd9f154a6bb9600029",
  "source": "pragma solidity ^0.4.18;\n\ncontract EthTxt {\n\n  event NewText(uint textId, string text);\n\n  struct StoredText {\n      string text;\n  }\n\n  StoredText[] public texts;\n\n  // this is the constructor\n  function EthTxt() public {\n      archiveText('Hello World!');\n  }\n\n  function archiveText(string _text) public {\n    uint id = texts.push(StoredText(_text)) - 1;\n    NewText(id, _text);\n  }\n\n  function getText(uint _id) public view returns (string) {\n    return texts[_id].text;\n  }\n\n  function getTextCount() public view returns (uint) {\n    return texts.length;\n  }\n\n}\n",
  "sourcePath": "/Users/claykohut/webdev/ethtxt/contracts/EthTxt.sol",
  "compiler": {
    "name": "solc",
    "version": "0.4.19+commit.c4cbbb05.Emscripten.clang"
  },
  "schemaVersion": "1.0.1",
  "updatedAt": "2018-02-19T02:30:39.370Z"
}