{
  "contractName": "EthTxt",
  "abi": [
    {
      "inputs": [],
      "payable": false,
      "stateMutability": "nonpayable",
      "type": "constructor"
    },
    {
      "anonymous": false,
      "inputs": [
        {
          "indexed": false,
          "name": "text",
          "type": "string"
        },
        {
          "indexed": false,
          "name": "code",
          "type": "string"
        }
      ],
      "name": "NewText",
      "type": "event"
    },
    {
      "constant": false,
      "inputs": [
        {
          "name": "_text",
          "type": "string"
        },
        {
          "name": "code",
          "type": "string"
        }
      ],
      "name": "archiveText",
      "outputs": [],
      "payable": false,
      "stateMutability": "nonpayable",
      "type": "function"
    },
    {
      "constant": true,
      "inputs": [
        {
          "name": "_code",
          "type": "string"
        }
      ],
      "name": "getText",
      "outputs": [
        {
          "name": "",
          "type": "string"
        }
      ],
      "payable": false,
      "stateMutability": "view",
      "type": "function"
    },
    {
      "constant": true,
      "inputs": [],
      "name": "getTextCount",
      "outputs": [
        {
          "name": "",
          "type": "uint256"
        }
      ],
      "payable": false,
      "stateMutability": "view",
      "type": "function"
    }
  ],
  "bytecode": "0x606060405260008055341561001357600080fd5b61063e806100226000396000f300606060405260043610610057576000357c0100000000000000000000000000000000000000000000000000000000900463ffffffff16806313f652fe1461005c57806326a0150414610132578063f64e167e146101d2575b600080fd5b341561006757600080fd5b6100b7600480803590602001908201803590602001908080601f016020809104026020016040519081016040528093929190818152602001838380828437820191505050505050919050506101fb565b6040518080602001828103825283818151815260200191508051906020019080838360005b838110156100f75780820151818401526020810190506100dc565b50505050905090810190601f1680156101245780820380516001836020036101000a031916815260200191505b509250505060405180910390f35b341561013d57600080fd5b6101d0600480803590602001908201803590602001908080601f0160208091040260200160405190810160405280939291908181526020018383808284378201915050505050509190803590602001908201803590602001908080601f01602080910402602001604051908101604052809392919081815260200183838082843782019150505050505091905050610311565b005b34156101dd57600080fd5b6101e5610550565b6040518082815260200191505060405180910390f35b610203610559565b6001826040518082805190602001908083835b60208310151561023b5780518252602082019150602081019050602083039250610216565b6001836020036101000a03801982511681845116808217855250505050505090500191505090815260200160405180910390206000018054600181600116156101000203166002900480601f0160208091040260200160405190810160405280929190818152602001828054600181600116156101000203166002900480156103055780601f106102da57610100808354040283529160200191610305565b820191906000526020600020905b8154815290600101906020018083116102e857829003601f168201915b50505050509050919050565b600082511415151561032257600080fd5b600061032d826101fb565b5114151561033a57600080fd5b60408051908101604052808381526020013373ffffffffffffffffffffffffffffffffffffffff168152506001826040518082805190602001908083835b60208310151561039d5780518252602082019150602081019050602083039250610378565b6001836020036101000a038019825116818451168082178552505050505050905001915050908152602001604051809103902060008201518160000190805190602001906103ec92919061056d565b5060208201518160010160006101000a81548173ffffffffffffffffffffffffffffffffffffffff021916908373ffffffffffffffffffffffffffffffffffffffff1602179055509050507f2a0a3b53eab12fe85bc54e6f46806c2d2fbfb931dccd517bfe4e9e5c50f7724d8282604051808060200180602001838103835285818151815260200191508051906020019080838360005b8381101561049e578082015181840152602081019050610483565b50505050905090810190601f1680156104cb5780820380516001836020036101000a031916815260200191505b50838103825284818151815260200191508051906020019080838360005b838110156105045780820151818401526020810190506104e9565b50505050905090810190601f1680156105315780820380516001836020036101000a031916815260200191505b5094505050505060405180910390a16001600054016000819055505050565b60008054905090565b602060405190810160405280600081525090565b828054600181600116156101000203166002900490600052602060002090601f016020900481019282601f106105ae57805160ff19168380011785556105dc565b828001600101855582156105dc579182015b828111156105db5782518255916020019190600101906105c0565b5b5090506105e991906105ed565b5090565b61060f91905b8082111561060b5760008160009055506001016105f3565b5090565b905600a165627a7a72305820aeee15d3d782288cf1f9755eb628f77bf1c411bd90531004edb297cf5095bda60029",
  "source": "pragma solidity ^0.4.18;\n\nimport \"./StrUtils.sol\";\n\ncontract EthTxt {\n\n  event NewText(string text, string code);\n\n  struct StoredText {\n      string text;\n      address submitter;\n  }\n\n  uint storedTextCount = 0;\n\n  mapping (string => StoredText) texts;\n\n  // this is the constructor\n  function EthTxt() public {\n      // do nothing here\n  }\n\n  function archiveText(string _text, string code) public {\n    // make sure _text is not an empty string\n    require(bytes(_text).length != 0);\n\n    //var code = _generateShortLink();\n    // make sure code doesnt exist in map\n    require(bytes(getText(code)).length == 0);\n\n    // add text to map\n    texts[code] = StoredText(_text, msg.sender);\n    NewText(_text, code);\n    storedTextCount = storedTextCount + 1;\n  }\n\n  function getText(string _code) public view returns (string) {\n    return texts[_code].text;\n  }\n\n  function getTextCount() public view returns (uint) {\n    return storedTextCount;\n  }\n\n  // Generates a shortlink code\n  function _generateShortLink() private view returns (string) {\n      var s1 = strUtils.toBase58(uint256(msg.sender), 2);\n      var s2 = strUtils.toBase58(block.number, 11);\n\n      var s = strUtils.concat(s1, s2);\n      return s;\n  }\n\n}\n",
  "sourcePath": "/Users/claykohut/webdev/ethtxt/contracts/EthTxt.sol",
  "compiler": {
    "name": "solc",
    "version": "0.4.19+commit.c4cbbb05.Emscripten.clang"
  },
  "schemaVersion": "1.0.1",
  "updatedAt": "2018-02-19T22:57:17.278Z"
}