{
  "contractName": "EthTxt",
  "abi": [
    {
      "inputs": [],
      "payable": false,
      "stateMutability": "nonpayable",
      "type": "constructor"
    },
    {
      "anonymous": false,
      "inputs": [
        {
          "indexed": false,
          "name": "text",
          "type": "string"
        },
        {
          "indexed": false,
          "name": "code",
          "type": "string"
        }
      ],
      "name": "NewText",
      "type": "event"
    },
    {
      "constant": false,
      "inputs": [
        {
          "name": "_text",
          "type": "string"
        }
      ],
      "name": "archiveText",
      "outputs": [],
      "payable": false,
      "stateMutability": "nonpayable",
      "type": "function"
    },
    {
      "constant": true,
      "inputs": [
        {
          "name": "_code",
          "type": "string"
        }
      ],
      "name": "getText",
      "outputs": [
        {
          "name": "",
          "type": "string"
        }
      ],
      "payable": false,
      "stateMutability": "view",
      "type": "function"
    },
    {
      "constant": true,
      "inputs": [],
      "name": "getTextCount",
      "outputs": [
        {
          "name": "",
          "type": "uint256"
        }
      ],
      "payable": false,
      "stateMutability": "view",
      "type": "function"
    }
  ],
  "bytecode": "0x606060405260008055341561001357600080fd5b610b2b806100226000396000f300606060405260043610610057576000357c0100000000000000000000000000000000000000000000000000000000900463ffffffff16806313f652fe1461005c5780631c8a779514610132578063f64e167e1461018f575b600080fd5b341561006757600080fd5b6100b7600480803590602001908201803590602001908080601f016020809104026020016040519081016040528093929190818152602001838380828437820191505050505050919050506101b8565b6040518080602001828103825283818151815260200191508051906020019080838360005b838110156100f75780820151818401526020810190506100dc565b50505050905090810190601f1680156101245780820380516001836020036101000a031916815260200191505b509250505060405180910390f35b341561013d57600080fd5b61018d600480803590602001908201803590602001908080601f016020809104026020016040519081016040528093929190818152602001838380828437820191505050505050919050506102ce565b005b341561019a57600080fd5b6101a261051f565b6040518082815260200191505060405180910390f35b6101c0610a32565b6001826040518082805190602001908083835b6020831015156101f857805182526020820191506020810190506020830392506101d3565b6001836020036101000a03801982511681845116808217855250505050505090500191505090815260200160405180910390206000018054600181600116156101000203166002900480601f0160208091040260200160405190810160405280929190818152602001828054600181600116156101000203166002900480156102c25780601f10610297576101008083540402835291602001916102c2565b820191906000526020600020905b8154815290600101906020018083116102a557829003601f168201915b50505050509050919050565b6102d6610a32565b60008251141515156102e757600080fd5b6102ef610528565b905060006102fc826101b8565b5114151561030957600080fd5b60408051908101604052808381526020013373ffffffffffffffffffffffffffffffffffffffff168152506001826040518082805190602001908083835b60208310151561036c5780518252602082019150602081019050602083039250610347565b6001836020036101000a038019825116818451168082178552505050505050905001915050908152602001604051809103902060008201518160000190805190602001906103bb929190610a46565b5060208201518160010160006101000a81548173ffffffffffffffffffffffffffffffffffffffff021916908373ffffffffffffffffffffffffffffffffffffffff1602179055509050507f2a0a3b53eab12fe85bc54e6f46806c2d2fbfb931dccd517bfe4e9e5c50f7724d8282604051808060200180602001838103835285818151815260200191508051906020019080838360005b8381101561046d578082015181840152602081019050610452565b50505050905090810190601f16801561049a5780820380516001836020036101000a031916815260200191505b50838103825284818151815260200191508051906020019080838360005b838110156104d35780820151818401526020810190506104b8565b50505050905090810190601f1680156105005780820380516001836020036101000a031916815260200191505b5094505050505060405180910390a16001600054016000819055505050565b60008054905090565b610530610a32565b610538610a32565b610540610a32565b610548610a32565b6105693373ffffffffffffffffffffffffffffffffffffffff16600261058d565b925061057643600b61058d565b91506105828383610852565b905080935050505090565b610595610a32565b61059d610a32565b6105a5610ac6565b6000806000806105b3610ac6565b60006105bd610ac6565b606060405190810160405280603a81526020017f3132333435363738396162636465666768696a6b6d6e6f70717273747576777881526020017f797a41424344454647484a4b4c4d4e505152535455565758595a0000000000008152509850889750603a96506000955060009450600093508a60ff166040518059106106405750595b9080825280601f01601f19166020018201604052509250600091505b8a60ff168260ff161015610756578660ff168c101561067a57600193505b8660ff168c81151561068857fe5b0694508660ff168c81151561069957fe5b049b5087858151811015156106aa57fe5b9060200101517f010000000000000000000000000000000000000000000000000000000000000090047f010000000000000000000000000000000000000000000000000000000000000002838360ff1681518110151561070657fe5b9060200101907effffffffffffffffffffffffffffffffffffffffffffffffffffffffffffff1916908160001a9053508580600101965050831561074957610756565b818060010192505061065c565b8560ff166040518059106107675750595b9080825280601f01601f19166020018201604052509050600091505b8560ff168260ff161015610840578260018388030360ff168151811015156107a757fe5b9060200101517f010000000000000000000000000000000000000000000000000000000000000090047f010000000000000000000000000000000000000000000000000000000000000002818360ff1681518110151561080357fe5b9060200101907effffffffffffffffffffffffffffffffffffffffffffffffffffffffffffff1916908160001a9053508180600101925050610783565b80995050505050505050505092915050565b61085a610a32565b610862610ac6565b61086a610ac6565b610872610a32565b61087a610ac6565b60008088955087945084518651016040518059106108955750595b9080825280601f01601f1916602001820160405250935083925060009150600090505b855181101561096b5785818151811015156108cf57fe5b9060200101517f010000000000000000000000000000000000000000000000000000000000000090047f010000000000000000000000000000000000000000000000000000000000000002838380600101945081518110151561092e57fe5b9060200101907effffffffffffffffffffffffffffffffffffffffffffffffffffffffffffff1916908160001a90535080806001019150506108b8565b600090505b8451811015610a2357848181518110151561098757fe5b9060200101517f010000000000000000000000000000000000000000000000000000000000000090047f01000000000000000000000000000000000000000000000000000000000000000283838060010194508151811015156109e657fe5b9060200101907effffffffffffffffffffffffffffffffffffffffffffffffffffffffffffff1916908160001a9053508080600101915050610970565b82965050505050505092915050565b602060405190810160405280600081525090565b828054600181600116156101000203166002900490600052602060002090601f016020900481019282601f10610a8757805160ff1916838001178555610ab5565b82800160010185558215610ab5579182015b82811115610ab4578251825591602001919060010190610a99565b5b509050610ac29190610ada565b5090565b602060405190810160405280600081525090565b610afc91905b80821115610af8576000816000905550600101610ae0565b5090565b905600a165627a7a72305820d756e6594b2ccd8b8698f9c00c9ad0a353558cb73da16e3ce37b51d16ae401520029",
  "source": "pragma solidity ^0.4.18;\n\nimport \"./StrUtils.sol\";\n\ncontract EthTxt {\n\n  event NewText(string text, string code);\n\n  struct StoredText {\n      string text;\n      address submitter;\n  }\n\n  uint storedTextCount = 0;\n\n  mapping (string => StoredText) texts;\n\n  // this is the constructor\n  function EthTxt() public {\n      // do nothing here\n  }\n\n  function archiveText(string _text) public {\n    // make sure _text is not an empty string\n    require(bytes(_text).length != 0);\n\n    var code = _generateShortLink();\n    // make sure code doesnt exist in map\n    require(bytes(getText(code)).length == 0);\n\n    // add text to map\n    texts[code] = StoredText(_text, msg.sender);\n    NewText(_text, code);\n    storedTextCount = storedTextCount + 1;\n  }\n\n  function getText(string _code) public view returns (string) {\n    return texts[_code].text;\n  }\n\n  function getTextCount() public view returns (uint) {\n    return storedTextCount;\n  }\n\n  // Generates a shortlink code\n  function _generateShortLink() private view returns (string) {\n      var s1 = strUtils.toBase58(uint256(msg.sender), 2);\n      var s2 = strUtils.toBase58(block.number, 11);\n\n      var s = strUtils.concat(s1, s2);\n      return s;\n  }\n\n}\n",
  "sourcePath": "/Users/claykohut/webdev/ethtxt/contracts/EthTxt.sol",
  "compiler": {
    "name": "solc",
    "version": "0.4.19+commit.c4cbbb05.Emscripten.clang"
  },
  "schemaVersion": "1.0.1",
  "updatedAt": "2018-02-20T00:06:08.847Z"
}